{
	"contracts/BlockchainMessanger.sol": {
		"BlockchainMessanger": {
			"abi": [
				{
					"inputs": [],
					"stateMutability": "nonpayable",
					"type": "constructor"
				},
				{
					"inputs": [],
					"name": "counter",
					"outputs": [
						{
							"internalType": "uint256",
							"name": "",
							"type": "uint256"
						}
					],
					"stateMutability": "view",
					"type": "function"
				},
				{
					"inputs": [],
					"name": "lastMessage",
					"outputs": [
						{
							"internalType": "string",
							"name": "",
							"type": "string"
						}
					],
					"stateMutability": "view",
					"type": "function"
				},
				{
					"inputs": [
						{
							"internalType": "string",
							"name": "_newMessage",
							"type": "string"
						}
					],
					"name": "updateLastMessage",
					"outputs": [],
					"stateMutability": "nonpayable",
					"type": "function"
				}
			],
			"devdoc": {
				"kind": "dev",
				"methods": {},
				"version": 1
			},
			"evm": {
				"assembly": "    /* \"contracts/BlockchainMessanger.sol\":61:673  contract BlockchainMessanger{... */\n  mstore(0x40, 0x80)\n    /* \"contracts/BlockchainMessanger.sol\":380:430  constructor(){... */\n  callvalue\n  dup1\n  iszero\n  tag_1\n  jumpi\n  0x00\n  dup1\n  revert\ntag_1:\n  pop\n    /* \"contracts/BlockchainMessanger.sol\":412:422  msg.sender */\n  caller\n    /* \"contracts/BlockchainMessanger.sol\":404:409  owner */\n  0x00\n  dup1\n    /* \"contracts/BlockchainMessanger.sol\":404:422  owner = msg.sender */\n  0x0100\n  exp\n  dup2\n  sload\n  dup2\n  0xffffffffffffffffffffffffffffffffffffffff\n  mul\n  not\n  and\n  swap1\n  dup4\n  0xffffffffffffffffffffffffffffffffffffffff\n  and\n  mul\n  or\n  swap1\n  sstore\n  pop\n    /* \"contracts/BlockchainMessanger.sol\":61:673  contract BlockchainMessanger{... */\n  dataSize(sub_0)\n  dup1\n  dataOffset(sub_0)\n  0x00\n  codecopy\n  0x00\n  return\nstop\n\nsub_0: assembly {\n        /* \"contracts/BlockchainMessanger.sol\":61:673  contract BlockchainMessanger{... */\n      mstore(0x40, 0x80)\n      callvalue\n      dup1\n      iszero\n      tag_1\n      jumpi\n      0x00\n      dup1\n      revert\n    tag_1:\n      pop\n      jumpi(tag_2, lt(calldatasize, 0x04))\n      shr(0xe0, calldataload(0x00))\n      dup1\n      0x32970710\n      eq\n      tag_3\n      jumpi\n      dup1\n      0x61bc221a\n      eq\n      tag_4\n      jumpi\n      dup1\n      0x7886cc76\n      eq\n      tag_5\n      jumpi\n    tag_2:\n      0x00\n      dup1\n      revert\n        /* \"contracts/BlockchainMessanger.sol\":346:371  string public lastMessage */\n    tag_3:\n      tag_6\n      tag_7\n      jump\t// in\n    tag_6:\n      mload(0x40)\n      tag_8\n      swap2\n      swap1\n      tag_9\n      jump\t// in\n    tag_8:\n      mload(0x40)\n      dup1\n      swap2\n      sub\n      swap1\n      return\n        /* \"contracts/BlockchainMessanger.sol\":317:339  uint256 public counter */\n    tag_4:\n      tag_10\n      tag_11\n      jump\t// in\n    tag_10:\n      mload(0x40)\n      tag_12\n      swap2\n      swap1\n      tag_13\n      jump\t// in\n    tag_12:\n      mload(0x40)\n      dup1\n      swap2\n      sub\n      swap1\n      return\n        /* \"contracts/BlockchainMessanger.sol\":438:668  function updateLastMessage(string memory _newMessage) public {... */\n    tag_5:\n      tag_14\n      0x04\n      dup1\n      calldatasize\n      sub\n      dup2\n      add\n      swap1\n      tag_15\n      swap2\n      swap1\n      tag_16\n      jump\t// in\n    tag_15:\n      tag_17\n      jump\t// in\n    tag_14:\n      stop\n        /* \"contracts/BlockchainMessanger.sol\":346:371  string public lastMessage */\n    tag_7:\n      0x02\n      dup1\n      sload\n      tag_18\n      swap1\n      tag_19\n      jump\t// in\n    tag_18:\n      dup1\n      0x1f\n      add\n      0x20\n      dup1\n      swap2\n      div\n      mul\n      0x20\n      add\n      mload(0x40)\n      swap1\n      dup2\n      add\n      0x40\n      mstore\n      dup1\n      swap3\n      swap2\n      swap1\n      dup2\n      dup2\n      mstore\n      0x20\n      add\n      dup3\n      dup1\n      sload\n      tag_20\n      swap1\n      tag_19\n      jump\t// in\n    tag_20:\n      dup1\n      iszero\n      tag_21\n      jumpi\n      dup1\n      0x1f\n      lt\n      tag_22\n      jumpi\n      0x0100\n      dup1\n      dup4\n      sload\n      div\n      mul\n      dup4\n      mstore\n      swap2\n      0x20\n      add\n      swap2\n      jump(tag_21)\n    tag_22:\n      dup3\n      add\n      swap2\n      swap1\n      0x00\n      mstore\n      keccak256(0x00, 0x20)\n      swap1\n    tag_23:\n      dup2\n      sload\n      dup2\n      mstore\n      swap1\n      0x01\n      add\n      swap1\n      0x20\n      add\n      dup1\n      dup4\n      gt\n      tag_23\n      jumpi\n      dup3\n      swap1\n      sub\n      0x1f\n      and\n      dup3\n      add\n      swap2\n    tag_21:\n      pop\n      pop\n      pop\n      pop\n      pop\n      dup2\n      jump\t// out\n        /* \"contracts/BlockchainMessanger.sol\":317:339  uint256 public counter */\n    tag_11:\n      sload(0x01)\n      dup2\n      jump\t// out\n        /* \"contracts/BlockchainMessanger.sol\":438:668  function updateLastMessage(string memory _newMessage) public {... */\n    tag_17:\n        /* \"contracts/BlockchainMessanger.sol\":589:600  lastMessage */\n      0x02\n        /* \"contracts/BlockchainMessanger.sol\":572:601  abi.encodePacked(lastMessage) */\n      add(0x20, mload(0x40))\n      tag_25\n      swap2\n      swap1\n      tag_26\n      jump\t// in\n    tag_25:\n      mload(0x40)\n      0x20\n      dup2\n      dup4\n      sub\n      sub\n      dup2\n      mstore\n      swap1\n      0x40\n      mstore\n        /* \"contracts/BlockchainMessanger.sol\":562:602  keccak256(abi.encodePacked(lastMessage)) */\n      dup1\n      mload\n      swap1\n      0x20\n      add\n      keccak256\n        /* \"contracts/BlockchainMessanger.sol\":545:556  _newMessage */\n      dup2\n        /* \"contracts/BlockchainMessanger.sol\":528:557  abi.encodePacked(_newMessage) */\n      add(0x20, mload(0x40))\n      tag_27\n      swap2\n      swap1\n      tag_28\n      jump\t// in\n    tag_27:\n      mload(0x40)\n      0x20\n      dup2\n      dup4\n      sub\n      sub\n      dup2\n      mstore\n      swap1\n      0x40\n      mstore\n        /* \"contracts/BlockchainMessanger.sol\":518:558  keccak256(abi.encodePacked(_newMessage)) */\n      dup1\n      mload\n      swap1\n      0x20\n      add\n      keccak256\n        /* \"contracts/BlockchainMessanger.sol\":518:602  keccak256(abi.encodePacked(_newMessage)) != keccak256(abi.encodePacked(lastMessage)) */\n      sub\n        /* \"contracts/BlockchainMessanger.sol\":510:603  require(keccak256(abi.encodePacked(_newMessage)) != keccak256(abi.encodePacked(lastMessage))) */\n      tag_29\n      jumpi\n      0x00\n      dup1\n      revert\n    tag_29:\n        /* \"contracts/BlockchainMessanger.sol\":628:639  _newMessage */\n      dup1\n        /* \"contracts/BlockchainMessanger.sol\":614:625  lastMessage */\n      0x02\n        /* \"contracts/BlockchainMessanger.sol\":614:639  lastMessage = _newMessage */\n      swap1\n      dup2\n      tag_30\n      swap2\n      swap1\n      tag_31\n      jump\t// in\n    tag_30:\n      pop\n        /* \"contracts/BlockchainMessanger.sol\":650:657  counter */\n      0x01\n      0x00\n        /* \"contracts/BlockchainMessanger.sol\":650:660  counter ++ */\n      dup2\n      sload\n      dup1\n      swap3\n      swap2\n      swap1\n      tag_32\n      swap1\n      tag_33\n      jump\t// in\n    tag_32:\n      swap2\n      swap1\n      pop\n      sstore\n      pop\n        /* \"contracts/BlockchainMessanger.sol\":438:668  function updateLastMessage(string memory _newMessage) public {... */\n      pop\n      jump\t// out\n        /* \"#utility.yul\":7:106   */\n    tag_34:\n        /* \"#utility.yul\":59:65   */\n      0x00\n        /* \"#utility.yul\":93:98   */\n      dup2\n        /* \"#utility.yul\":87:99   */\n      mload\n        /* \"#utility.yul\":77:99   */\n      swap1\n      pop\n        /* \"#utility.yul\":7:106   */\n      swap2\n      swap1\n      pop\n      jump\t// out\n        /* \"#utility.yul\":112:281   */\n    tag_35:\n        /* \"#utility.yul\":196:207   */\n      0x00\n        /* \"#utility.yul\":230:236   */\n      dup3\n        /* \"#utility.yul\":225:228   */\n      dup3\n        /* \"#utility.yul\":218:237   */\n      mstore\n        /* \"#utility.yul\":270:274   */\n      0x20\n        /* \"#utility.yul\":265:268   */\n      dup3\n        /* \"#utility.yul\":261:275   */\n      add\n        /* \"#utility.yul\":246:275   */\n      swap1\n      pop\n        /* \"#utility.yul\":112:281   */\n      swap3\n      swap2\n      pop\n      pop\n      jump\t// out\n        /* \"#utility.yul\":287:594   */\n    tag_36:\n        /* \"#utility.yul\":355:356   */\n      0x00\n        /* \"#utility.yul\":365:478   */\n    tag_77:\n        /* \"#utility.yul\":379:385   */\n      dup4\n        /* \"#utility.yul\":376:377   */\n      dup2\n        /* \"#utility.yul\":373:386   */\n      lt\n        /* \"#utility.yul\":365:478   */\n      iszero\n      tag_79\n      jumpi\n        /* \"#utility.yul\":464:465   */\n      dup1\n        /* \"#utility.yul\":459:462   */\n      dup3\n        /* \"#utility.yul\":455:466   */\n      add\n        /* \"#utility.yul\":449:467   */\n      mload\n        /* \"#utility.yul\":445:446   */\n      dup2\n        /* \"#utility.yul\":440:443   */\n      dup5\n        /* \"#utility.yul\":436:447   */\n      add\n        /* \"#utility.yul\":429:468   */\n      mstore\n        /* \"#utility.yul\":401:403   */\n      0x20\n        /* \"#utility.yul\":398:399   */\n      dup2\n        /* \"#utility.yul\":394:404   */\n      add\n        /* \"#utility.yul\":389:404   */\n      swap1\n      pop\n        /* \"#utility.yul\":365:478   */\n      jump(tag_77)\n    tag_79:\n        /* \"#utility.yul\":496:502   */\n      dup4\n        /* \"#utility.yul\":493:494   */\n      dup2\n        /* \"#utility.yul\":490:503   */\n      gt\n        /* \"#utility.yul\":487:588   */\n      iszero\n      tag_80\n      jumpi\n        /* \"#utility.yul\":576:577   */\n      0x00\n        /* \"#utility.yul\":567:573   */\n      dup5\n        /* \"#utility.yul\":562:565   */\n      dup5\n        /* \"#utility.yul\":558:574   */\n      add\n        /* \"#utility.yul\":551:578   */\n      mstore\n        /* \"#utility.yul\":487:588   */\n    tag_80:\n        /* \"#utility.yul\":336:594   */\n      pop\n        /* \"#utility.yul\":287:594   */\n      pop\n      pop\n      pop\n      jump\t// out\n        /* \"#utility.yul\":600:702   */\n    tag_37:\n        /* \"#utility.yul\":641:647   */\n      0x00\n        /* \"#utility.yul\":692:694   */\n      0x1f\n        /* \"#utility.yul\":688:695   */\n      not\n        /* \"#utility.yul\":683:685   */\n      0x1f\n        /* \"#utility.yul\":676:681   */\n      dup4\n        /* \"#utility.yul\":672:686   */\n      add\n        /* \"#utility.yul\":668:696   */\n      and\n        /* \"#utility.yul\":658:696   */\n      swap1\n      pop\n        /* \"#utility.yul\":600:702   */\n      swap2\n      swap1\n      pop\n      jump\t// out\n        /* \"#utility.yul\":708:1072   */\n    tag_38:\n        /* \"#utility.yul\":796:799   */\n      0x00\n        /* \"#utility.yul\":824:863   */\n      tag_83\n        /* \"#utility.yul\":857:862   */\n      dup3\n        /* \"#utility.yul\":824:863   */\n      tag_34\n      jump\t// in\n    tag_83:\n        /* \"#utility.yul\":879:950   */\n      tag_84\n        /* \"#utility.yul\":943:949   */\n      dup2\n        /* \"#utility.yul\":938:941   */\n      dup6\n        /* \"#utility.yul\":879:950   */\n      tag_35\n      jump\t// in\n    tag_84:\n        /* \"#utility.yul\":872:950   */\n      swap4\n      pop\n        /* \"#utility.yul\":959:1011   */\n      tag_85\n        /* \"#utility.yul\":1004:1010   */\n      dup2\n        /* \"#utility.yul\":999:1002   */\n      dup6\n        /* \"#utility.yul\":992:996   */\n      0x20\n        /* \"#utility.yul\":985:990   */\n      dup7\n        /* \"#utility.yul\":981:997   */\n      add\n        /* \"#utility.yul\":959:1011   */\n      tag_36\n      jump\t// in\n    tag_85:\n        /* \"#utility.yul\":1036:1065   */\n      tag_86\n        /* \"#utility.yul\":1058:1064   */\n      dup2\n        /* \"#utility.yul\":1036:1065   */\n      tag_37\n      jump\t// in\n    tag_86:\n        /* \"#utility.yul\":1031:1034   */\n      dup5\n        /* \"#utility.yul\":1027:1066   */\n      add\n        /* \"#utility.yul\":1020:1066   */\n      swap2\n      pop\n        /* \"#utility.yul\":800:1072   */\n      pop\n        /* \"#utility.yul\":708:1072   */\n      swap3\n      swap2\n      pop\n      pop\n      jump\t// out\n        /* \"#utility.yul\":1078:1391   */\n    tag_9:\n        /* \"#utility.yul\":1191:1195   */\n      0x00\n        /* \"#utility.yul\":1229:1231   */\n      0x20\n        /* \"#utility.yul\":1218:1227   */\n      dup3\n        /* \"#utility.yul\":1214:1232   */\n      add\n        /* \"#utility.yul\":1206:1232   */\n      swap1\n      pop\n        /* \"#utility.yul\":1278:1287   */\n      dup2\n        /* \"#utility.yul\":1272:1276   */\n      dup2\n        /* \"#utility.yul\":1268:1288   */\n      sub\n        /* \"#utility.yul\":1264:1265   */\n      0x00\n        /* \"#utility.yul\":1253:1262   */\n      dup4\n        /* \"#utility.yul\":1249:1266   */\n      add\n        /* \"#utility.yul\":1242:1289   */\n      mstore\n        /* \"#utility.yul\":1306:1384   */\n      tag_88\n        /* \"#utility.yul\":1379:1383   */\n      dup2\n        /* \"#utility.yul\":1370:1376   */\n      dup5\n        /* \"#utility.yul\":1306:1384   */\n      tag_38\n      jump\t// in\n    tag_88:\n        /* \"#utility.yul\":1298:1384   */\n      swap1\n      pop\n        /* \"#utility.yul\":1078:1391   */\n      swap3\n      swap2\n      pop\n      pop\n      jump\t// out\n        /* \"#utility.yul\":1397:1474   */\n    tag_39:\n        /* \"#utility.yul\":1434:1441   */\n      0x00\n        /* \"#utility.yul\":1463:1468   */\n      dup2\n        /* \"#utility.yul\":1452:1468   */\n      swap1\n      pop\n        /* \"#utility.yul\":1397:1474   */\n      swap2\n      swap1\n      pop\n      jump\t// out\n        /* \"#utility.yul\":1480:1598   */\n    tag_40:\n        /* \"#utility.yul\":1567:1591   */\n      tag_91\n        /* \"#utility.yul\":1585:1590   */\n      dup2\n        /* \"#utility.yul\":1567:1591   */\n      tag_39\n      jump\t// in\n    tag_91:\n        /* \"#utility.yul\":1562:1565   */\n      dup3\n        /* \"#utility.yul\":1555:1592   */\n      mstore\n        /* \"#utility.yul\":1480:1598   */\n      pop\n      pop\n      jump\t// out\n        /* \"#utility.yul\":1604:1826   */\n    tag_13:\n        /* \"#utility.yul\":1697:1701   */\n      0x00\n        /* \"#utility.yul\":1735:1737   */\n      0x20\n        /* \"#utility.yul\":1724:1733   */\n      dup3\n        /* \"#utility.yul\":1720:1738   */\n      add\n        /* \"#utility.yul\":1712:1738   */\n      swap1\n      pop\n        /* \"#utility.yul\":1748:1819   */\n      tag_93\n        /* \"#utility.yul\":1816:1817   */\n      0x00\n        /* \"#utility.yul\":1805:1814   */\n      dup4\n        /* \"#utility.yul\":1801:1818   */\n      add\n        /* \"#utility.yul\":1792:1798   */\n      dup5\n        /* \"#utility.yul\":1748:1819   */\n      tag_40\n      jump\t// in\n    tag_93:\n        /* \"#utility.yul\":1604:1826   */\n      swap3\n      swap2\n      pop\n      pop\n      jump\t// out\n        /* \"#utility.yul\":1832:1907   */\n    tag_41:\n        /* \"#utility.yul\":1865:1871   */\n      0x00\n        /* \"#utility.yul\":1898:1900   */\n      0x40\n        /* \"#utility.yul\":1892:1901   */\n      mload\n        /* \"#utility.yul\":1882:1901   */\n      swap1\n      pop\n        /* \"#utility.yul\":1832:1907   */\n      swap1\n      jump\t// out\n        /* \"#utility.yul\":1913:2030   */\n    tag_42:\n        /* \"#utility.yul\":2022:2023   */\n      0x00\n        /* \"#utility.yul\":2019:2020   */\n      dup1\n        /* \"#utility.yul\":2012:2024   */\n      revert\n        /* \"#utility.yul\":2036:2153   */\n    tag_43:\n        /* \"#utility.yul\":2145:2146   */\n      0x00\n        /* \"#utility.yul\":2142:2143   */\n      dup1\n        /* \"#utility.yul\":2135:2147   */\n      revert\n        /* \"#utility.yul\":2159:2276   */\n    tag_44:\n        /* \"#utility.yul\":2268:2269   */\n      0x00\n        /* \"#utility.yul\":2265:2266   */\n      dup1\n        /* \"#utility.yul\":2258:2270   */\n      revert\n        /* \"#utility.yul\":2282:2399   */\n    tag_45:\n        /* \"#utility.yul\":2391:2392   */\n      0x00\n        /* \"#utility.yul\":2388:2389   */\n      dup1\n        /* \"#utility.yul\":2381:2393   */\n      revert\n        /* \"#utility.yul\":2405:2585   */\n    tag_46:\n        /* \"#utility.yul\":2453:2530   */\n      0x4e487b7100000000000000000000000000000000000000000000000000000000\n        /* \"#utility.yul\":2450:2451   */\n      0x00\n        /* \"#utility.yul\":2443:2531   */\n      mstore\n        /* \"#utility.yul\":2550:2554   */\n      0x41\n        /* \"#utility.yul\":2547:2548   */\n      0x04\n        /* \"#utility.yul\":2540:2555   */\n      mstore\n        /* \"#utility.yul\":2574:2578   */\n      0x24\n        /* \"#utility.yul\":2571:2572   */\n      0x00\n        /* \"#utility.yul\":2564:2579   */\n      revert\n        /* \"#utility.yul\":2591:2872   */\n    tag_47:\n        /* \"#utility.yul\":2674:2701   */\n      tag_101\n        /* \"#utility.yul\":2696:2700   */\n      dup3\n        /* \"#utility.yul\":2674:2701   */\n      tag_37\n      jump\t// in\n    tag_101:\n        /* \"#utility.yul\":2666:2672   */\n      dup2\n        /* \"#utility.yul\":2662:2702   */\n      add\n        /* \"#utility.yul\":2804:2810   */\n      dup2\n        /* \"#utility.yul\":2792:2802   */\n      dup2\n        /* \"#utility.yul\":2789:2811   */\n      lt\n        /* \"#utility.yul\":2768:2786   */\n      0xffffffffffffffff\n        /* \"#utility.yul\":2756:2766   */\n      dup3\n        /* \"#utility.yul\":2753:2787   */\n      gt\n        /* \"#utility.yul\":2750:2812   */\n      or\n        /* \"#utility.yul\":2747:2835   */\n      iszero\n      tag_102\n      jumpi\n        /* \"#utility.yul\":2815:2833   */\n      tag_103\n      tag_46\n      jump\t// in\n    tag_103:\n        /* \"#utility.yul\":2747:2835   */\n    tag_102:\n        /* \"#utility.yul\":2855:2865   */\n      dup1\n        /* \"#utility.yul\":2851:2853   */\n      0x40\n        /* \"#utility.yul\":2844:2866   */\n      mstore\n        /* \"#utility.yul\":2634:2872   */\n      pop\n        /* \"#utility.yul\":2591:2872   */\n      pop\n      pop\n      jump\t// out\n        /* \"#utility.yul\":2878:3007   */\n    tag_48:\n        /* \"#utility.yul\":2912:2918   */\n      0x00\n        /* \"#utility.yul\":2939:2959   */\n      tag_105\n      tag_41\n      jump\t// in\n    tag_105:\n        /* \"#utility.yul\":2929:2959   */\n      swap1\n      pop\n        /* \"#utility.yul\":2968:3001   */\n      tag_106\n        /* \"#utility.yul\":2996:3000   */\n      dup3\n        /* \"#utility.yul\":2988:2994   */\n      dup3\n        /* \"#utility.yul\":2968:3001   */\n      tag_47\n      jump\t// in\n    tag_106:\n        /* \"#utility.yul\":2878:3007   */\n      swap2\n      swap1\n      pop\n      jump\t// out\n        /* \"#utility.yul\":3013:3321   */\n    tag_49:\n        /* \"#utility.yul\":3075:3079   */\n      0x00\n        /* \"#utility.yul\":3165:3183   */\n      0xffffffffffffffff\n        /* \"#utility.yul\":3157:3163   */\n      dup3\n        /* \"#utility.yul\":3154:3184   */\n      gt\n        /* \"#utility.yul\":3151:3207   */\n      iszero\n      tag_108\n      jumpi\n        /* \"#utility.yul\":3187:3205   */\n      tag_109\n      tag_46\n      jump\t// in\n    tag_109:\n        /* \"#utility.yul\":3151:3207   */\n    tag_108:\n        /* \"#utility.yul\":3225:3254   */\n      tag_110\n        /* \"#utility.yul\":3247:3253   */\n      dup3\n        /* \"#utility.yul\":3225:3254   */\n      tag_37\n      jump\t// in\n    tag_110:\n        /* \"#utility.yul\":3217:3254   */\n      swap1\n      pop\n        /* \"#utility.yul\":3309:3313   */\n      0x20\n        /* \"#utility.yul\":3303:3307   */\n      dup2\n        /* \"#utility.yul\":3299:3314   */\n      add\n        /* \"#utility.yul\":3291:3314   */\n      swap1\n      pop\n        /* \"#utility.yul\":3013:3321   */\n      swap2\n      swap1\n      pop\n      jump\t// out\n        /* \"#utility.yul\":3327:3481   */\n    tag_50:\n        /* \"#utility.yul\":3411:3417   */\n      dup3\n        /* \"#utility.yul\":3406:3409   */\n      dup2\n        /* \"#utility.yul\":3401:3404   */\n      dup4\n        /* \"#utility.yul\":3388:3418   */\n      calldatacopy\n        /* \"#utility.yul\":3473:3474   */\n      0x00\n        /* \"#utility.yul\":3464:3470   */\n      dup4\n        /* \"#utility.yul\":3459:3462   */\n      dup4\n        /* \"#utility.yul\":3455:3471   */\n      add\n        /* \"#utility.yul\":3448:3475   */\n      mstore\n        /* \"#utility.yul\":3327:3481   */\n      pop\n      pop\n      pop\n      jump\t// out\n        /* \"#utility.yul\":3487:3899   */\n    tag_51:\n        /* \"#utility.yul\":3565:3570   */\n      0x00\n        /* \"#utility.yul\":3590:3656   */\n      tag_113\n        /* \"#utility.yul\":3606:3655   */\n      tag_114\n        /* \"#utility.yul\":3648:3654   */\n      dup5\n        /* \"#utility.yul\":3606:3655   */\n      tag_49\n      jump\t// in\n    tag_114:\n        /* \"#utility.yul\":3590:3656   */\n      tag_48\n      jump\t// in\n    tag_113:\n        /* \"#utility.yul\":3581:3656   */\n      swap1\n      pop\n        /* \"#utility.yul\":3679:3685   */\n      dup3\n        /* \"#utility.yul\":3672:3677   */\n      dup2\n        /* \"#utility.yul\":3665:3686   */\n      mstore\n        /* \"#utility.yul\":3717:3721   */\n      0x20\n        /* \"#utility.yul\":3710:3715   */\n      dup2\n        /* \"#utility.yul\":3706:3722   */\n      add\n        /* \"#utility.yul\":3755:3758   */\n      dup5\n        /* \"#utility.yul\":3746:3752   */\n      dup5\n        /* \"#utility.yul\":3741:3744   */\n      dup5\n        /* \"#utility.yul\":3737:3753   */\n      add\n        /* \"#utility.yul\":3734:3759   */\n      gt\n        /* \"#utility.yul\":3731:3843   */\n      iszero\n      tag_115\n      jumpi\n        /* \"#utility.yul\":3762:3841   */\n      tag_116\n      tag_45\n      jump\t// in\n    tag_116:\n        /* \"#utility.yul\":3731:3843   */\n    tag_115:\n        /* \"#utility.yul\":3852:3893   */\n      tag_117\n        /* \"#utility.yul\":3886:3892   */\n      dup5\n        /* \"#utility.yul\":3881:3884   */\n      dup3\n        /* \"#utility.yul\":3876:3879   */\n      dup6\n        /* \"#utility.yul\":3852:3893   */\n      tag_50\n      jump\t// in\n    tag_117:\n        /* \"#utility.yul\":3571:3899   */\n      pop\n        /* \"#utility.yul\":3487:3899   */\n      swap4\n      swap3\n      pop\n      pop\n      pop\n      jump\t// out\n        /* \"#utility.yul\":3919:4259   */\n    tag_52:\n        /* \"#utility.yul\":3975:3980   */\n      0x00\n        /* \"#utility.yul\":4024:4027   */\n      dup3\n        /* \"#utility.yul\":4017:4021   */\n      0x1f\n        /* \"#utility.yul\":4009:4015   */\n      dup4\n        /* \"#utility.yul\":4005:4022   */\n      add\n        /* \"#utility.yul\":4001:4028   */\n      slt\n        /* \"#utility.yul\":3991:4113   */\n      tag_119\n      jumpi\n        /* \"#utility.yul\":4032:4111   */\n      tag_120\n      tag_44\n      jump\t// in\n    tag_120:\n        /* \"#utility.yul\":3991:4113   */\n    tag_119:\n        /* \"#utility.yul\":4149:4155   */\n      dup2\n        /* \"#utility.yul\":4136:4156   */\n      calldataload\n        /* \"#utility.yul\":4174:4253   */\n      tag_121\n        /* \"#utility.yul\":4249:4252   */\n      dup5\n        /* \"#utility.yul\":4241:4247   */\n      dup3\n        /* \"#utility.yul\":4234:4238   */\n      0x20\n        /* \"#utility.yul\":4226:4232   */\n      dup7\n        /* \"#utility.yul\":4222:4239   */\n      add\n        /* \"#utility.yul\":4174:4253   */\n      tag_51\n      jump\t// in\n    tag_121:\n        /* \"#utility.yul\":4165:4253   */\n      swap2\n      pop\n        /* \"#utility.yul\":3981:4259   */\n      pop\n        /* \"#utility.yul\":3919:4259   */\n      swap3\n      swap2\n      pop\n      pop\n      jump\t// out\n        /* \"#utility.yul\":4265:4774   */\n    tag_16:\n        /* \"#utility.yul\":4334:4340   */\n      0x00\n        /* \"#utility.yul\":4383:4385   */\n      0x20\n        /* \"#utility.yul\":4371:4380   */\n      dup3\n        /* \"#utility.yul\":4362:4369   */\n      dup5\n        /* \"#utility.yul\":4358:4381   */\n      sub\n        /* \"#utility.yul\":4354:4386   */\n      slt\n        /* \"#utility.yul\":4351:4470   */\n      iszero\n      tag_123\n      jumpi\n        /* \"#utility.yul\":4389:4468   */\n      tag_124\n      tag_42\n      jump\t// in\n    tag_124:\n        /* \"#utility.yul\":4351:4470   */\n    tag_123:\n        /* \"#utility.yul\":4537:4538   */\n      0x00\n        /* \"#utility.yul\":4526:4535   */\n      dup3\n        /* \"#utility.yul\":4522:4539   */\n      add\n        /* \"#utility.yul\":4509:4540   */\n      calldataload\n        /* \"#utility.yul\":4567:4585   */\n      0xffffffffffffffff\n        /* \"#utility.yul\":4559:4565   */\n      dup2\n        /* \"#utility.yul\":4556:4586   */\n      gt\n        /* \"#utility.yul\":4553:4670   */\n      iszero\n      tag_125\n      jumpi\n        /* \"#utility.yul\":4589:4668   */\n      tag_126\n      tag_43\n      jump\t// in\n    tag_126:\n        /* \"#utility.yul\":4553:4670   */\n    tag_125:\n        /* \"#utility.yul\":4694:4757   */\n      tag_127\n        /* \"#utility.yul\":4749:4756   */\n      dup5\n        /* \"#utility.yul\":4740:4746   */\n      dup3\n        /* \"#utility.yul\":4729:4738   */\n      dup6\n        /* \"#utility.yul\":4725:4747   */\n      add\n        /* \"#utility.yul\":4694:4757   */\n      tag_52\n      jump\t// in\n    tag_127:\n        /* \"#utility.yul\":4684:4757   */\n      swap2\n      pop\n        /* \"#utility.yul\":4480:4767   */\n      pop\n        /* \"#utility.yul\":4265:4774   */\n      swap3\n      swap2\n      pop\n      pop\n      jump\t// out\n        /* \"#utility.yul\":4780:4960   */\n    tag_53:\n        /* \"#utility.yul\":4828:4905   */\n      0x4e487b7100000000000000000000000000000000000000000000000000000000\n        /* \"#utility.yul\":4825:4826   */\n      0x00\n        /* \"#utility.yul\":4818:4906   */\n      mstore\n        /* \"#utility.yul\":4925:4929   */\n      0x22\n        /* \"#utility.yul\":4922:4923   */\n      0x04\n        /* \"#utility.yul\":4915:4930   */\n      mstore\n        /* \"#utility.yul\":4949:4953   */\n      0x24\n        /* \"#utility.yul\":4946:4947   */\n      0x00\n        /* \"#utility.yul\":4939:4954   */\n      revert\n        /* \"#utility.yul\":4966:5286   */\n    tag_19:\n        /* \"#utility.yul\":5010:5016   */\n      0x00\n        /* \"#utility.yul\":5047:5048   */\n      0x02\n        /* \"#utility.yul\":5041:5045   */\n      dup3\n        /* \"#utility.yul\":5037:5049   */\n      div\n        /* \"#utility.yul\":5027:5049   */\n      swap1\n      pop\n        /* \"#utility.yul\":5094:5095   */\n      0x01\n        /* \"#utility.yul\":5088:5092   */\n      dup3\n        /* \"#utility.yul\":5084:5096   */\n      and\n        /* \"#utility.yul\":5115:5133   */\n      dup1\n        /* \"#utility.yul\":5105:5186   */\n      tag_130\n      jumpi\n        /* \"#utility.yul\":5171:5175   */\n      0x7f\n        /* \"#utility.yul\":5163:5169   */\n      dup3\n        /* \"#utility.yul\":5159:5176   */\n      and\n        /* \"#utility.yul\":5149:5176   */\n      swap2\n      pop\n        /* \"#utility.yul\":5105:5186   */\n    tag_130:\n        /* \"#utility.yul\":5233:5235   */\n      0x20\n        /* \"#utility.yul\":5225:5231   */\n      dup3\n        /* \"#utility.yul\":5222:5236   */\n      lt\n        /* \"#utility.yul\":5202:5220   */\n      dup2\n        /* \"#utility.yul\":5199:5237   */\n      sub\n        /* \"#utility.yul\":5196:5280   */\n      tag_131\n      jumpi\n        /* \"#utility.yul\":5252:5270   */\n      tag_132\n      tag_53\n      jump\t// in\n    tag_132:\n        /* \"#utility.yul\":5196:5280   */\n    tag_131:\n        /* \"#utility.yul\":5017:5286   */\n      pop\n        /* \"#utility.yul\":4966:5286   */\n      swap2\n      swap1\n      pop\n      jump\t// out\n        /* \"#utility.yul\":5292:5440   */\n    tag_54:\n        /* \"#utility.yul\":5394:5405   */\n      0x00\n        /* \"#utility.yul\":5431:5434   */\n      dup2\n        /* \"#utility.yul\":5416:5434   */\n      swap1\n      pop\n        /* \"#utility.yul\":5292:5440   */\n      swap3\n      swap2\n      pop\n      pop\n      jump\t// out\n        /* \"#utility.yul\":5446:5587   */\n    tag_55:\n        /* \"#utility.yul\":5495:5499   */\n      0x00\n        /* \"#utility.yul\":5518:5521   */\n      dup2\n        /* \"#utility.yul\":5510:5521   */\n      swap1\n      pop\n        /* \"#utility.yul\":5541:5544   */\n      dup2\n        /* \"#utility.yul\":5538:5539   */\n      0x00\n        /* \"#utility.yul\":5531:5545   */\n      mstore\n        /* \"#utility.yul\":5575:5579   */\n      0x20\n        /* \"#utility.yul\":5572:5573   */\n      0x00\n        /* \"#utility.yul\":5562:5580   */\n      keccak256\n        /* \"#utility.yul\":5554:5580   */\n      swap1\n      pop\n        /* \"#utility.yul\":5446:5587   */\n      swap2\n      swap1\n      pop\n      jump\t// out\n        /* \"#utility.yul\":5617:6491   */\n    tag_56:\n        /* \"#utility.yul\":5720:5723   */\n      0x00\n        /* \"#utility.yul\":5757:5762   */\n      dup2\n        /* \"#utility.yul\":5751:5763   */\n      sload\n        /* \"#utility.yul\":5786:5822   */\n      tag_136\n        /* \"#utility.yul\":5812:5821   */\n      dup2\n        /* \"#utility.yul\":5786:5822   */\n      tag_19\n      jump\t// in\n    tag_136:\n        /* \"#utility.yul\":5838:5927   */\n      tag_137\n        /* \"#utility.yul\":5920:5926   */\n      dup2\n        /* \"#utility.yul\":5915:5918   */\n      dup7\n        /* \"#utility.yul\":5838:5927   */\n      tag_54\n      jump\t// in\n    tag_137:\n        /* \"#utility.yul\":5831:5927   */\n      swap5\n      pop\n        /* \"#utility.yul\":5958:5959   */\n      0x01\n        /* \"#utility.yul\":5947:5956   */\n      dup3\n        /* \"#utility.yul\":5943:5960   */\n      and\n        /* \"#utility.yul\":5974:5975   */\n      0x00\n        /* \"#utility.yul\":5969:6135   */\n      dup2\n      eq\n      tag_139\n      jumpi\n        /* \"#utility.yul\":6149:6150   */\n      0x01\n        /* \"#utility.yul\":6144:6485   */\n      dup2\n      eq\n      tag_140\n      jumpi\n        /* \"#utility.yul\":5936:6485   */\n      jump(tag_138)\n        /* \"#utility.yul\":5969:6135   */\n    tag_139:\n        /* \"#utility.yul\":6053:6057   */\n      0xff\n        /* \"#utility.yul\":6049:6058   */\n      not\n        /* \"#utility.yul\":6038:6047   */\n      dup4\n        /* \"#utility.yul\":6034:6059   */\n      and\n        /* \"#utility.yul\":6029:6032   */\n      dup7\n        /* \"#utility.yul\":6022:6060   */\n      mstore\n        /* \"#utility.yul\":6115:6121   */\n      dup2\n        /* \"#utility.yul\":6108:6122   */\n      iszero\n        /* \"#utility.yul\":6101:6123   */\n      iszero\n        /* \"#utility.yul\":6093:6099   */\n      dup3\n        /* \"#utility.yul\":6089:6124   */\n      mul\n        /* \"#utility.yul\":6084:6087   */\n      dup7\n        /* \"#utility.yul\":6080:6125   */\n      add\n        /* \"#utility.yul\":6073:6125   */\n      swap4\n      pop\n        /* \"#utility.yul\":5969:6135   */\n      jump(tag_138)\n        /* \"#utility.yul\":6144:6485   */\n    tag_140:\n        /* \"#utility.yul\":6211:6249   */\n      tag_141\n        /* \"#utility.yul\":6243:6248   */\n      dup6\n        /* \"#utility.yul\":6211:6249   */\n      tag_55\n      jump\t// in\n    tag_141:\n        /* \"#utility.yul\":6271:6272   */\n      0x00\n        /* \"#utility.yul\":6285:6439   */\n    tag_142:\n        /* \"#utility.yul\":6299:6305   */\n      dup4\n        /* \"#utility.yul\":6296:6297   */\n      dup2\n        /* \"#utility.yul\":6293:6306   */\n      lt\n        /* \"#utility.yul\":6285:6439   */\n      iszero\n      tag_144\n      jumpi\n        /* \"#utility.yul\":6373:6380   */\n      dup2\n        /* \"#utility.yul\":6367:6381   */\n      sload\n        /* \"#utility.yul\":6363:6364   */\n      dup2\n        /* \"#utility.yul\":6358:6361   */\n      dup10\n        /* \"#utility.yul\":6354:6365   */\n      add\n        /* \"#utility.yul\":6347:6382   */\n      mstore\n        /* \"#utility.yul\":6423:6424   */\n      0x01\n        /* \"#utility.yul\":6414:6421   */\n      dup3\n        /* \"#utility.yul\":6410:6425   */\n      add\n        /* \"#utility.yul\":6399:6425   */\n      swap2\n      pop\n        /* \"#utility.yul\":6321:6325   */\n      0x20\n        /* \"#utility.yul\":6318:6319   */\n      dup2\n        /* \"#utility.yul\":6314:6326   */\n      add\n        /* \"#utility.yul\":6309:6326   */\n      swap1\n      pop\n        /* \"#utility.yul\":6285:6439   */\n      jump(tag_142)\n    tag_144:\n        /* \"#utility.yul\":6468:6474   */\n      dup4\n        /* \"#utility.yul\":6463:6466   */\n      dup9\n        /* \"#utility.yul\":6459:6475   */\n      add\n        /* \"#utility.yul\":6452:6475   */\n      swap6\n      pop\n        /* \"#utility.yul\":6151:6485   */\n      pop\n      pop\n        /* \"#utility.yul\":5936:6485   */\n    tag_138:\n      pop\n        /* \"#utility.yul\":5724:6491   */\n      pop\n      pop\n        /* \"#utility.yul\":5617:6491   */\n      swap3\n      swap2\n      pop\n      pop\n      jump\t// out\n        /* \"#utility.yul\":6497:6766   */\n    tag_26:\n        /* \"#utility.yul\":6626:6629   */\n      0x00\n        /* \"#utility.yul\":6648:6740   */\n      tag_146\n        /* \"#utility.yul\":6736:6739   */\n      dup3\n        /* \"#utility.yul\":6727:6733   */\n      dup5\n        /* \"#utility.yul\":6648:6740   */\n      tag_56\n      jump\t// in\n    tag_146:\n        /* \"#utility.yul\":6641:6740   */\n      swap2\n      pop\n        /* \"#utility.yul\":6757:6760   */\n      dup2\n        /* \"#utility.yul\":6750:6760   */\n      swap1\n      pop\n        /* \"#utility.yul\":6497:6766   */\n      swap3\n      swap2\n      pop\n      pop\n      jump\t// out\n        /* \"#utility.yul\":6772:7149   */\n    tag_57:\n        /* \"#utility.yul\":6878:6881   */\n      0x00\n        /* \"#utility.yul\":6906:6945   */\n      tag_148\n        /* \"#utility.yul\":6939:6944   */\n      dup3\n        /* \"#utility.yul\":6906:6945   */\n      tag_34\n      jump\t// in\n    tag_148:\n        /* \"#utility.yul\":6961:7050   */\n      tag_149\n        /* \"#utility.yul\":7043:7049   */\n      dup2\n        /* \"#utility.yul\":7038:7041   */\n      dup6\n        /* \"#utility.yul\":6961:7050   */\n      tag_54\n      jump\t// in\n    tag_149:\n        /* \"#utility.yul\":6954:7050   */\n      swap4\n      pop\n        /* \"#utility.yul\":7059:7111   */\n      tag_150\n        /* \"#utility.yul\":7104:7110   */\n      dup2\n        /* \"#utility.yul\":7099:7102   */\n      dup6\n        /* \"#utility.yul\":7092:7096   */\n      0x20\n        /* \"#utility.yul\":7085:7090   */\n      dup7\n        /* \"#utility.yul\":7081:7097   */\n      add\n        /* \"#utility.yul\":7059:7111   */\n      tag_36\n      jump\t// in\n    tag_150:\n        /* \"#utility.yul\":7136:7142   */\n      dup1\n        /* \"#utility.yul\":7131:7134   */\n      dup5\n        /* \"#utility.yul\":7127:7143   */\n      add\n        /* \"#utility.yul\":7120:7143   */\n      swap2\n      pop\n        /* \"#utility.yul\":6882:7149   */\n      pop\n        /* \"#utility.yul\":6772:7149   */\n      swap3\n      swap2\n      pop\n      pop\n      jump\t// out\n        /* \"#utility.yul\":7155:7430   */\n    tag_28:\n        /* \"#utility.yul\":7287:7290   */\n      0x00\n        /* \"#utility.yul\":7309:7404   */\n      tag_152\n        /* \"#utility.yul\":7400:7403   */\n      dup3\n        /* \"#utility.yul\":7391:7397   */\n      dup5\n        /* \"#utility.yul\":7309:7404   */\n      tag_57\n      jump\t// in\n    tag_152:\n        /* \"#utility.yul\":7302:7404   */\n      swap2\n      pop\n        /* \"#utility.yul\":7421:7424   */\n      dup2\n        /* \"#utility.yul\":7414:7424   */\n      swap1\n      pop\n        /* \"#utility.yul\":7155:7430   */\n      swap3\n      swap2\n      pop\n      pop\n      jump\t// out\n        /* \"#utility.yul\":7436:7529   */\n    tag_58:\n        /* \"#utility.yul\":7473:7479   */\n      0x00\n        /* \"#utility.yul\":7520:7522   */\n      0x20\n        /* \"#utility.yul\":7515:7517   */\n      0x1f\n        /* \"#utility.yul\":7508:7513   */\n      dup4\n        /* \"#utility.yul\":7504:7518   */\n      add\n        /* \"#utility.yul\":7500:7523   */\n      div\n        /* \"#utility.yul\":7490:7523   */\n      swap1\n      pop\n        /* \"#utility.yul\":7436:7529   */\n      swap2\n      swap1\n      pop\n      jump\t// out\n        /* \"#utility.yul\":7535:7642   */\n    tag_59:\n        /* \"#utility.yul\":7579:7587   */\n      0x00\n        /* \"#utility.yul\":7629:7634   */\n      dup3\n        /* \"#utility.yul\":7623:7627   */\n      dup3\n        /* \"#utility.yul\":7619:7635   */\n      shl\n        /* \"#utility.yul\":7598:7635   */\n      swap1\n      pop\n        /* \"#utility.yul\":7535:7642   */\n      swap3\n      swap2\n      pop\n      pop\n      jump\t// out\n        /* \"#utility.yul\":7648:8041   */\n    tag_60:\n        /* \"#utility.yul\":7717:7723   */\n      0x00\n        /* \"#utility.yul\":7767:7768   */\n      0x08\n        /* \"#utility.yul\":7755:7765   */\n      dup4\n        /* \"#utility.yul\":7751:7769   */\n      mul\n        /* \"#utility.yul\":7790:7887   */\n      tag_156\n        /* \"#utility.yul\":7820:7886   */\n      0xffffffffffffffffffffffffffffffffffffffffffffffffffffffffffffffff\n        /* \"#utility.yul\":7809:7818   */\n      dup3\n        /* \"#utility.yul\":7790:7887   */\n      tag_59\n      jump\t// in\n    tag_156:\n        /* \"#utility.yul\":7908:7947   */\n      tag_157\n        /* \"#utility.yul\":7938:7946   */\n      dup7\n        /* \"#utility.yul\":7927:7936   */\n      dup4\n        /* \"#utility.yul\":7908:7947   */\n      tag_59\n      jump\t// in\n    tag_157:\n        /* \"#utility.yul\":7896:7947   */\n      swap6\n      pop\n        /* \"#utility.yul\":7980:7984   */\n      dup1\n        /* \"#utility.yul\":7976:7985   */\n      not\n        /* \"#utility.yul\":7969:7974   */\n      dup5\n        /* \"#utility.yul\":7965:7986   */\n      and\n        /* \"#utility.yul\":7956:7986   */\n      swap4\n      pop\n        /* \"#utility.yul\":8029:8033   */\n      dup1\n        /* \"#utility.yul\":8019:8027   */\n      dup7\n        /* \"#utility.yul\":8015:8034   */\n      and\n        /* \"#utility.yul\":8008:8013   */\n      dup5\n        /* \"#utility.yul\":8005:8035   */\n      or\n        /* \"#utility.yul\":7995:8035   */\n      swap3\n      pop\n        /* \"#utility.yul\":7724:8041   */\n      pop\n      pop\n        /* \"#utility.yul\":7648:8041   */\n      swap4\n      swap3\n      pop\n      pop\n      pop\n      jump\t// out\n        /* \"#utility.yul\":8047:8107   */\n    tag_61:\n        /* \"#utility.yul\":8075:8078   */\n      0x00\n        /* \"#utility.yul\":8096:8101   */\n      dup2\n        /* \"#utility.yul\":8089:8101   */\n      swap1\n      pop\n        /* \"#utility.yul\":8047:8107   */\n      swap2\n      swap1\n      pop\n      jump\t// out\n        /* \"#utility.yul\":8113:8255   */\n    tag_62:\n        /* \"#utility.yul\":8163:8172   */\n      0x00\n        /* \"#utility.yul\":8196:8249   */\n      tag_160\n        /* \"#utility.yul\":8214:8248   */\n      tag_161\n        /* \"#utility.yul\":8223:8247   */\n      tag_162\n        /* \"#utility.yul\":8241:8246   */\n      dup5\n        /* \"#utility.yul\":8223:8247   */\n      tag_39\n      jump\t// in\n    tag_162:\n        /* \"#utility.yul\":8214:8248   */\n      tag_61\n      jump\t// in\n    tag_161:\n        /* \"#utility.yul\":8196:8249   */\n      tag_39\n      jump\t// in\n    tag_160:\n        /* \"#utility.yul\":8183:8249   */\n      swap1\n      pop\n        /* \"#utility.yul\":8113:8255   */\n      swap2\n      swap1\n      pop\n      jump\t// out\n        /* \"#utility.yul\":8261:8336   */\n    tag_63:\n        /* \"#utility.yul\":8304:8307   */\n      0x00\n        /* \"#utility.yul\":8325:8330   */\n      dup2\n        /* \"#utility.yul\":8318:8330   */\n      swap1\n      pop\n        /* \"#utility.yul\":8261:8336   */\n      swap2\n      swap1\n      pop\n      jump\t// out\n        /* \"#utility.yul\":8342:8611   */\n    tag_64:\n        /* \"#utility.yul\":8452:8491   */\n      tag_165\n        /* \"#utility.yul\":8483:8490   */\n      dup4\n        /* \"#utility.yul\":8452:8491   */\n      tag_62\n      jump\t// in\n    tag_165:\n        /* \"#utility.yul\":8513:8604   */\n      tag_166\n        /* \"#utility.yul\":8562:8603   */\n      tag_167\n        /* \"#utility.yul\":8586:8602   */\n      dup3\n        /* \"#utility.yul\":8562:8603   */\n      tag_63\n      jump\t// in\n    tag_167:\n        /* \"#utility.yul\":8554:8560   */\n      dup5\n        /* \"#utility.yul\":8547:8551   */\n      dup5\n        /* \"#utility.yul\":8541:8552   */\n      sload\n        /* \"#utility.yul\":8513:8604   */\n      tag_60\n      jump\t// in\n    tag_166:\n        /* \"#utility.yul\":8507:8511   */\n      dup3\n        /* \"#utility.yul\":8500:8605   */\n      sstore\n        /* \"#utility.yul\":8418:8611   */\n      pop\n        /* \"#utility.yul\":8342:8611   */\n      pop\n      pop\n      pop\n      jump\t// out\n        /* \"#utility.yul\":8617:8690   */\n    tag_65:\n        /* \"#utility.yul\":8662:8665   */\n      0x00\n        /* \"#utility.yul\":8617:8690   */\n      swap1\n      jump\t// out\n        /* \"#utility.yul\":8696:8885   */\n    tag_66:\n        /* \"#utility.yul\":8773:8805   */\n      tag_170\n      tag_65\n      jump\t// in\n    tag_170:\n        /* \"#utility.yul\":8814:8879   */\n      tag_171\n        /* \"#utility.yul\":8872:8878   */\n      dup2\n        /* \"#utility.yul\":8864:8870   */\n      dup5\n        /* \"#utility.yul\":8858:8862   */\n      dup5\n        /* \"#utility.yul\":8814:8879   */\n      tag_64\n      jump\t// in\n    tag_171:\n        /* \"#utility.yul\":8749:8885   */\n      pop\n        /* \"#utility.yul\":8696:8885   */\n      pop\n      pop\n      jump\t// out\n        /* \"#utility.yul\":8891:9077   */\n    tag_67:\n        /* \"#utility.yul\":8951:9071   */\n    tag_173:\n        /* \"#utility.yul\":8968:8971   */\n      dup2\n        /* \"#utility.yul\":8961:8966   */\n      dup2\n        /* \"#utility.yul\":8958:8972   */\n      lt\n        /* \"#utility.yul\":8951:9071   */\n      iszero\n      tag_175\n      jumpi\n        /* \"#utility.yul\":9022:9061   */\n      tag_176\n        /* \"#utility.yul\":9059:9060   */\n      0x00\n        /* \"#utility.yul\":9052:9057   */\n      dup3\n        /* \"#utility.yul\":9022:9061   */\n      tag_66\n      jump\t// in\n    tag_176:\n        /* \"#utility.yul\":8995:8996   */\n      0x01\n        /* \"#utility.yul\":8988:8993   */\n      dup2\n        /* \"#utility.yul\":8984:8997   */\n      add\n        /* \"#utility.yul\":8975:8997   */\n      swap1\n      pop\n        /* \"#utility.yul\":8951:9071   */\n      jump(tag_173)\n    tag_175:\n        /* \"#utility.yul\":8891:9077   */\n      pop\n      pop\n      jump\t// out\n        /* \"#utility.yul\":9083:9626   */\n    tag_68:\n        /* \"#utility.yul\":9184:9186   */\n      0x1f\n        /* \"#utility.yul\":9179:9182   */\n      dup3\n        /* \"#utility.yul\":9176:9187   */\n      gt\n        /* \"#utility.yul\":9173:9619   */\n      iszero\n      tag_178\n      jumpi\n        /* \"#utility.yul\":9218:9256   */\n      tag_179\n        /* \"#utility.yul\":9250:9255   */\n      dup2\n        /* \"#utility.yul\":9218:9256   */\n      tag_55\n      jump\t// in\n    tag_179:\n        /* \"#utility.yul\":9302:9331   */\n      tag_180\n        /* \"#utility.yul\":9320:9330   */\n      dup5\n        /* \"#utility.yul\":9302:9331   */\n      tag_58\n      jump\t// in\n    tag_180:\n        /* \"#utility.yul\":9292:9300   */\n      dup2\n        /* \"#utility.yul\":9288:9332   */\n      add\n        /* \"#utility.yul\":9485:9487   */\n      0x20\n        /* \"#utility.yul\":9473:9483   */\n      dup6\n        /* \"#utility.yul\":9470:9488   */\n      lt\n        /* \"#utility.yul\":9467:9516   */\n      iszero\n      tag_181\n      jumpi\n        /* \"#utility.yul\":9506:9514   */\n      dup2\n        /* \"#utility.yul\":9491:9514   */\n      swap1\n      pop\n        /* \"#utility.yul\":9467:9516   */\n    tag_181:\n        /* \"#utility.yul\":9529:9609   */\n      tag_182\n        /* \"#utility.yul\":9585:9607   */\n      tag_183\n        /* \"#utility.yul\":9603:9606   */\n      dup6\n        /* \"#utility.yul\":9585:9607   */\n      tag_58\n      jump\t// in\n    tag_183:\n        /* \"#utility.yul\":9575:9583   */\n      dup4\n        /* \"#utility.yul\":9571:9608   */\n      add\n        /* \"#utility.yul\":9558:9569   */\n      dup3\n        /* \"#utility.yul\":9529:9609   */\n      tag_67\n      jump\t// in\n    tag_182:\n        /* \"#utility.yul\":9188:9619   */\n      pop\n      pop\n        /* \"#utility.yul\":9173:9619   */\n    tag_178:\n        /* \"#utility.yul\":9083:9626   */\n      pop\n      pop\n      pop\n      jump\t// out\n        /* \"#utility.yul\":9632:9749   */\n    tag_69:\n        /* \"#utility.yul\":9686:9694   */\n      0x00\n        /* \"#utility.yul\":9736:9741   */\n      dup3\n        /* \"#utility.yul\":9730:9734   */\n      dup3\n        /* \"#utility.yul\":9726:9742   */\n      shr\n        /* \"#utility.yul\":9705:9742   */\n      swap1\n      pop\n        /* \"#utility.yul\":9632:9749   */\n      swap3\n      swap2\n      pop\n      pop\n      jump\t// out\n        /* \"#utility.yul\":9755:9924   */\n    tag_70:\n        /* \"#utility.yul\":9799:9805   */\n      0x00\n        /* \"#utility.yul\":9832:9883   */\n      tag_186\n        /* \"#utility.yul\":9880:9881   */\n      0x00\n        /* \"#utility.yul\":9876:9882   */\n      not\n        /* \"#utility.yul\":9868:9873   */\n      dup5\n        /* \"#utility.yul\":9865:9866   */\n      0x08\n        /* \"#utility.yul\":9861:9874   */\n      mul\n        /* \"#utility.yul\":9832:9883   */\n      tag_69\n      jump\t// in\n    tag_186:\n        /* \"#utility.yul\":9828:9884   */\n      not\n        /* \"#utility.yul\":9913:9917   */\n      dup1\n        /* \"#utility.yul\":9907:9911   */\n      dup4\n        /* \"#utility.yul\":9903:9918   */\n      and\n        /* \"#utility.yul\":9893:9918   */\n      swap2\n      pop\n        /* \"#utility.yul\":9806:9924   */\n      pop\n        /* \"#utility.yul\":9755:9924   */\n      swap3\n      swap2\n      pop\n      pop\n      jump\t// out\n        /* \"#utility.yul\":9929:10224   */\n    tag_71:\n        /* \"#utility.yul\":10005:10009   */\n      0x00\n        /* \"#utility.yul\":10151:10180   */\n      tag_188\n        /* \"#utility.yul\":10176:10179   */\n      dup4\n        /* \"#utility.yul\":10170:10174   */\n      dup4\n        /* \"#utility.yul\":10151:10180   */\n      tag_70\n      jump\t// in\n    tag_188:\n        /* \"#utility.yul\":10143:10180   */\n      swap2\n      pop\n        /* \"#utility.yul\":10213:10216   */\n      dup3\n        /* \"#utility.yul\":10210:10211   */\n      0x02\n        /* \"#utility.yul\":10206:10217   */\n      mul\n        /* \"#utility.yul\":10200:10204   */\n      dup3\n        /* \"#utility.yul\":10197:10218   */\n      or\n        /* \"#utility.yul\":10189:10218   */\n      swap1\n      pop\n        /* \"#utility.yul\":9929:10224   */\n      swap3\n      swap2\n      pop\n      pop\n      jump\t// out\n        /* \"#utility.yul\":10229:11624   */\n    tag_31:\n        /* \"#utility.yul\":10346:10383   */\n      tag_190\n        /* \"#utility.yul\":10379:10382   */\n      dup3\n        /* \"#utility.yul\":10346:10383   */\n      tag_34\n      jump\t// in\n    tag_190:\n        /* \"#utility.yul\":10448:10466   */\n      0xffffffffffffffff\n        /* \"#utility.yul\":10440:10446   */\n      dup2\n        /* \"#utility.yul\":10437:10467   */\n      gt\n        /* \"#utility.yul\":10434:10490   */\n      iszero\n      tag_191\n      jumpi\n        /* \"#utility.yul\":10470:10488   */\n      tag_192\n      tag_46\n      jump\t// in\n    tag_192:\n        /* \"#utility.yul\":10434:10490   */\n    tag_191:\n        /* \"#utility.yul\":10514:10552   */\n      tag_193\n        /* \"#utility.yul\":10546:10550   */\n      dup3\n        /* \"#utility.yul\":10540:10551   */\n      sload\n        /* \"#utility.yul\":10514:10552   */\n      tag_19\n      jump\t// in\n    tag_193:\n        /* \"#utility.yul\":10599:10666   */\n      tag_194\n        /* \"#utility.yul\":10659:10665   */\n      dup3\n        /* \"#utility.yul\":10651:10657   */\n      dup3\n        /* \"#utility.yul\":10645:10649   */\n      dup6\n        /* \"#utility.yul\":10599:10666   */\n      tag_68\n      jump\t// in\n    tag_194:\n        /* \"#utility.yul\":10693:10694   */\n      0x00\n        /* \"#utility.yul\":10717:10721   */\n      0x20\n        /* \"#utility.yul\":10704:10721   */\n      swap1\n      pop\n        /* \"#utility.yul\":10749:10751   */\n      0x1f\n        /* \"#utility.yul\":10741:10747   */\n      dup4\n        /* \"#utility.yul\":10738:10752   */\n      gt\n        /* \"#utility.yul\":10766:10767   */\n      0x01\n        /* \"#utility.yul\":10761:11379   */\n      dup2\n      eq\n      tag_196\n      jumpi\n        /* \"#utility.yul\":11423:11424   */\n      0x00\n        /* \"#utility.yul\":11440:11446   */\n      dup5\n        /* \"#utility.yul\":11437:11514   */\n      iszero\n      tag_197\n      jumpi\n        /* \"#utility.yul\":11489:11498   */\n      dup3\n        /* \"#utility.yul\":11484:11487   */\n      dup8\n        /* \"#utility.yul\":11480:11499   */\n      add\n        /* \"#utility.yul\":11474:11500   */\n      mload\n        /* \"#utility.yul\":11465:11500   */\n      swap1\n      pop\n        /* \"#utility.yul\":11437:11514   */\n    tag_197:\n        /* \"#utility.yul\":11540:11607   */\n      tag_198\n        /* \"#utility.yul\":11600:11606   */\n      dup6\n        /* \"#utility.yul\":11593:11598   */\n      dup3\n        /* \"#utility.yul\":11540:11607   */\n      tag_71\n      jump\t// in\n    tag_198:\n        /* \"#utility.yul\":11534:11538   */\n      dup7\n        /* \"#utility.yul\":11527:11608   */\n      sstore\n        /* \"#utility.yul\":11396:11618   */\n      pop\n        /* \"#utility.yul\":10731:11618   */\n      jump(tag_195)\n        /* \"#utility.yul\":10761:11379   */\n    tag_196:\n        /* \"#utility.yul\":10813:10817   */\n      0x1f\n        /* \"#utility.yul\":10809:10818   */\n      not\n        /* \"#utility.yul\":10801:10807   */\n      dup5\n        /* \"#utility.yul\":10797:10819   */\n      and\n        /* \"#utility.yul\":10847:10884   */\n      tag_199\n        /* \"#utility.yul\":10879:10883   */\n      dup7\n        /* \"#utility.yul\":10847:10884   */\n      tag_55\n      jump\t// in\n    tag_199:\n        /* \"#utility.yul\":10906:10907   */\n      0x00\n        /* \"#utility.yul\":10920:11128   */\n    tag_200:\n        /* \"#utility.yul\":10934:10941   */\n      dup3\n        /* \"#utility.yul\":10931:10932   */\n      dup2\n        /* \"#utility.yul\":10928:10942   */\n      lt\n        /* \"#utility.yul\":10920:11128   */\n      iszero\n      tag_202\n      jumpi\n        /* \"#utility.yul\":11013:11022   */\n      dup5\n        /* \"#utility.yul\":11008:11011   */\n      dup10\n        /* \"#utility.yul\":11004:11023   */\n      add\n        /* \"#utility.yul\":10998:11024   */\n      mload\n        /* \"#utility.yul\":10990:10996   */\n      dup3\n        /* \"#utility.yul\":10983:11025   */\n      sstore\n        /* \"#utility.yul\":11064:11065   */\n      0x01\n        /* \"#utility.yul\":11056:11062   */\n      dup3\n        /* \"#utility.yul\":11052:11066   */\n      add\n        /* \"#utility.yul\":11042:11066   */\n      swap2\n      pop\n        /* \"#utility.yul\":11111:11113   */\n      0x20\n        /* \"#utility.yul\":11100:11109   */\n      dup6\n        /* \"#utility.yul\":11096:11114   */\n      add\n        /* \"#utility.yul\":11083:11114   */\n      swap5\n      pop\n        /* \"#utility.yul\":10957:10961   */\n      0x20\n        /* \"#utility.yul\":10954:10955   */\n      dup2\n        /* \"#utility.yul\":10950:10962   */\n      add\n        /* \"#utility.yul\":10945:10962   */\n      swap1\n      pop\n        /* \"#utility.yul\":10920:11128   */\n      jump(tag_200)\n    tag_202:\n        /* \"#utility.yul\":11156:11162   */\n      dup7\n        /* \"#utility.yul\":11147:11154   */\n      dup4\n        /* \"#utility.yul\":11144:11163   */\n      lt\n        /* \"#utility.yul\":11141:11320   */\n      iszero\n      tag_203\n      jumpi\n        /* \"#utility.yul\":11214:11223   */\n      dup5\n        /* \"#utility.yul\":11209:11212   */\n      dup10\n        /* \"#utility.yul\":11205:11224   */\n      add\n        /* \"#utility.yul\":11199:11225   */\n      mload\n        /* \"#utility.yul\":11257:11305   */\n      tag_204\n        /* \"#utility.yul\":11299:11303   */\n      0x1f\n        /* \"#utility.yul\":11291:11297   */\n      dup10\n        /* \"#utility.yul\":11287:11304   */\n      and\n        /* \"#utility.yul\":11276:11285   */\n      dup3\n        /* \"#utility.yul\":11257:11305   */\n      tag_70\n      jump\t// in\n    tag_204:\n        /* \"#utility.yul\":11249:11255   */\n      dup4\n        /* \"#utility.yul\":11242:11306   */\n      sstore\n        /* \"#utility.yul\":11164:11320   */\n      pop\n        /* \"#utility.yul\":11141:11320   */\n    tag_203:\n        /* \"#utility.yul\":11366:11367   */\n      0x01\n        /* \"#utility.yul\":11362:11363   */\n      0x02\n        /* \"#utility.yul\":11354:11360   */\n      dup9\n        /* \"#utility.yul\":11350:11364   */\n      mul\n        /* \"#utility.yul\":11346:11368   */\n      add\n        /* \"#utility.yul\":11340:11344   */\n      dup9\n        /* \"#utility.yul\":11333:11369   */\n      sstore\n        /* \"#utility.yul\":10768:11379   */\n      pop\n      pop\n      pop\n        /* \"#utility.yul\":10731:11618   */\n    tag_195:\n      pop\n        /* \"#utility.yul\":10321:11624   */\n      pop\n      pop\n      pop\n        /* \"#utility.yul\":10229:11624   */\n      pop\n      pop\n      jump\t// out\n        /* \"#utility.yul\":11630:11810   */\n    tag_72:\n        /* \"#utility.yul\":11678:11755   */\n      0x4e487b7100000000000000000000000000000000000000000000000000000000\n        /* \"#utility.yul\":11675:11676   */\n      0x00\n        /* \"#utility.yul\":11668:11756   */\n      mstore\n        /* \"#utility.yul\":11775:11779   */\n      0x11\n        /* \"#utility.yul\":11772:11773   */\n      0x04\n        /* \"#utility.yul\":11765:11780   */\n      mstore\n        /* \"#utility.yul\":11799:11803   */\n      0x24\n        /* \"#utility.yul\":11796:11797   */\n      0x00\n        /* \"#utility.yul\":11789:11804   */\n      revert\n        /* \"#utility.yul\":11816:12049   */\n    tag_33:\n        /* \"#utility.yul\":11855:11858   */\n      0x00\n        /* \"#utility.yul\":11878:11902   */\n      tag_207\n        /* \"#utility.yul\":11896:11901   */\n      dup3\n        /* \"#utility.yul\":11878:11902   */\n      tag_39\n      jump\t// in\n    tag_207:\n        /* \"#utility.yul\":11869:11902   */\n      swap2\n      pop\n        /* \"#utility.yul\":11924:11990   */\n      0xffffffffffffffffffffffffffffffffffffffffffffffffffffffffffffffff\n        /* \"#utility.yul\":11917:11922   */\n      dup3\n        /* \"#utility.yul\":11914:11991   */\n      sub\n        /* \"#utility.yul\":11911:12014   */\n      tag_208\n      jumpi\n        /* \"#utility.yul\":11994:12012   */\n      tag_209\n      tag_72\n      jump\t// in\n    tag_209:\n        /* \"#utility.yul\":11911:12014   */\n    tag_208:\n        /* \"#utility.yul\":12041:12042   */\n      0x01\n        /* \"#utility.yul\":12034:12039   */\n      dup3\n        /* \"#utility.yul\":12030:12043   */\n      add\n        /* \"#utility.yul\":12023:12043   */\n      swap1\n      pop\n        /* \"#utility.yul\":11816:12049   */\n      swap2\n      swap1\n      pop\n      jump\t// out\n\n    auxdata: 0xa26469706673582212205117f3f2ec41b94e143458d32dbcde10f0817ddab4ba29f2c5df16f8c440640b64736f6c634300080f0033\n}\n",
				"bytecode": {
					"linkReferences": {},
					"object": "608060405234801561001057600080fd5b50336000806101000a81548173ffffffffffffffffffffffffffffffffffffffff021916908373ffffffffffffffffffffffffffffffffffffffff1602179055506108af806100606000396000f3fe608060405234801561001057600080fd5b50600436106100415760003560e01c8063329707101461004657806361bc221a146100645780637886cc7614610082575b600080fd5b61004e61009e565b60405161005b919061024f565b60405180910390f35b61006c61012c565b604051610079919061028a565b60405180910390f35b61009c600480360381019061009791906103ee565b610132565b005b600280546100ab90610466565b80601f01602080910402602001604051908101604052809291908181526020018280546100d790610466565b80156101245780601f106100f957610100808354040283529160200191610124565b820191906000526020600020905b81548152906001019060200180831161010757829003601f168201915b505050505081565b60015481565b6002604051602001610144919061053a565b604051602081830303815290604052805190602001208160405160200161016b9190610582565b604051602081830303815290604052805190602001200361018b57600080fd5b806002908161019a9190610730565b50600160008154809291906101ae90610831565b919050555050565b600081519050919050565b600082825260208201905092915050565b60005b838110156101f05780820151818401526020810190506101d5565b838111156101ff576000848401525b50505050565b6000601f19601f8301169050919050565b6000610221826101b6565b61022b81856101c1565b935061023b8185602086016101d2565b61024481610205565b840191505092915050565b600060208201905081810360008301526102698184610216565b905092915050565b6000819050919050565b61028481610271565b82525050565b600060208201905061029f600083018461027b565b92915050565b6000604051905090565b600080fd5b600080fd5b600080fd5b600080fd5b7f4e487b7100000000000000000000000000000000000000000000000000000000600052604160045260246000fd5b6102fb82610205565b810181811067ffffffffffffffff8211171561031a576103196102c3565b5b80604052505050565b600061032d6102a5565b905061033982826102f2565b919050565b600067ffffffffffffffff821115610359576103586102c3565b5b61036282610205565b9050602081019050919050565b82818337600083830152505050565b600061039161038c8461033e565b610323565b9050828152602081018484840111156103ad576103ac6102be565b5b6103b884828561036f565b509392505050565b600082601f8301126103d5576103d46102b9565b5b81356103e584826020860161037e565b91505092915050565b600060208284031215610404576104036102af565b5b600082013567ffffffffffffffff811115610422576104216102b4565b5b61042e848285016103c0565b91505092915050565b7f4e487b7100000000000000000000000000000000000000000000000000000000600052602260045260246000fd5b6000600282049050600182168061047e57607f821691505b60208210810361049157610490610437565b5b50919050565b600081905092915050565b60008190508160005260206000209050919050565b600081546104c481610466565b6104ce8186610497565b945060018216600081146104e957600181146104fe57610531565b60ff1983168652811515820286019350610531565b610507856104a2565b60005b838110156105295781548189015260018201915060208101905061050a565b838801955050505b50505092915050565b600061054682846104b7565b915081905092915050565b600061055c826101b6565b6105668185610497565b93506105768185602086016101d2565b80840191505092915050565b600061058e8284610551565b915081905092915050565b60006020601f8301049050919050565b600082821b905092915050565b6000600883026105e67fffffffffffffffffffffffffffffffffffffffffffffffffffffffffffffffff826105a9565b6105f086836105a9565b95508019841693508086168417925050509392505050565b6000819050919050565b600061062d61062861062384610271565b610608565b610271565b9050919050565b6000819050919050565b61064783610612565b61065b61065382610634565b8484546105b6565b825550505050565b600090565b610670610663565b61067b81848461063e565b505050565b5b8181101561069f57610694600082610668565b600181019050610681565b5050565b601f8211156106e4576106b5816104a2565b6106be84610599565b810160208510156106cd578190505b6106e16106d985610599565b830182610680565b50505b505050565b600082821c905092915050565b6000610707600019846008026106e9565b1980831691505092915050565b600061072083836106f6565b9150826002028217905092915050565b610739826101b6565b67ffffffffffffffff811115610752576107516102c3565b5b61075c8254610466565b6107678282856106a3565b600060209050601f83116001811461079a5760008415610788578287015190505b6107928582610714565b8655506107fa565b601f1984166107a8866104a2565b60005b828110156107d0578489015182556001820191506020850194506020810190506107ab565b868310156107ed57848901516107e9601f8916826106f6565b8355505b6001600288020188555050505b505050505050565b7f4e487b7100000000000000000000000000000000000000000000000000000000600052601160045260246000fd5b600061083c82610271565b91507fffffffffffffffffffffffffffffffffffffffffffffffffffffffffffffffff820361086e5761086d610802565b5b60018201905091905056fea26469706673582212205117f3f2ec41b94e143458d32dbcde10f0817ddab4ba29f2c5df16f8c440640b64736f6c634300080f0033",
					"opcodes": "PUSH1 0x80 PUSH1 0x40 MSTORE CALLVALUE DUP1 ISZERO PUSH2 0x10 JUMPI PUSH1 0x0 DUP1 REVERT JUMPDEST POP CALLER PUSH1 0x0 DUP1 PUSH2 0x100 EXP DUP2 SLOAD DUP2 PUSH20 0xFFFFFFFFFFFFFFFFFFFFFFFFFFFFFFFFFFFFFFFF MUL NOT AND SWAP1 DUP4 PUSH20 0xFFFFFFFFFFFFFFFFFFFFFFFFFFFFFFFFFFFFFFFF AND MUL OR SWAP1 SSTORE POP PUSH2 0x8AF DUP1 PUSH2 0x60 PUSH1 0x0 CODECOPY PUSH1 0x0 RETURN INVALID PUSH1 0x80 PUSH1 0x40 MSTORE CALLVALUE DUP1 ISZERO PUSH2 0x10 JUMPI PUSH1 0x0 DUP1 REVERT JUMPDEST POP PUSH1 0x4 CALLDATASIZE LT PUSH2 0x41 JUMPI PUSH1 0x0 CALLDATALOAD PUSH1 0xE0 SHR DUP1 PUSH4 0x32970710 EQ PUSH2 0x46 JUMPI DUP1 PUSH4 0x61BC221A EQ PUSH2 0x64 JUMPI DUP1 PUSH4 0x7886CC76 EQ PUSH2 0x82 JUMPI JUMPDEST PUSH1 0x0 DUP1 REVERT JUMPDEST PUSH2 0x4E PUSH2 0x9E JUMP JUMPDEST PUSH1 0x40 MLOAD PUSH2 0x5B SWAP2 SWAP1 PUSH2 0x24F JUMP JUMPDEST PUSH1 0x40 MLOAD DUP1 SWAP2 SUB SWAP1 RETURN JUMPDEST PUSH2 0x6C PUSH2 0x12C JUMP JUMPDEST PUSH1 0x40 MLOAD PUSH2 0x79 SWAP2 SWAP1 PUSH2 0x28A JUMP JUMPDEST PUSH1 0x40 MLOAD DUP1 SWAP2 SUB SWAP1 RETURN JUMPDEST PUSH2 0x9C PUSH1 0x4 DUP1 CALLDATASIZE SUB DUP2 ADD SWAP1 PUSH2 0x97 SWAP2 SWAP1 PUSH2 0x3EE JUMP JUMPDEST PUSH2 0x132 JUMP JUMPDEST STOP JUMPDEST PUSH1 0x2 DUP1 SLOAD PUSH2 0xAB SWAP1 PUSH2 0x466 JUMP JUMPDEST DUP1 PUSH1 0x1F ADD PUSH1 0x20 DUP1 SWAP2 DIV MUL PUSH1 0x20 ADD PUSH1 0x40 MLOAD SWAP1 DUP2 ADD PUSH1 0x40 MSTORE DUP1 SWAP3 SWAP2 SWAP1 DUP2 DUP2 MSTORE PUSH1 0x20 ADD DUP3 DUP1 SLOAD PUSH2 0xD7 SWAP1 PUSH2 0x466 JUMP JUMPDEST DUP1 ISZERO PUSH2 0x124 JUMPI DUP1 PUSH1 0x1F LT PUSH2 0xF9 JUMPI PUSH2 0x100 DUP1 DUP4 SLOAD DIV MUL DUP4 MSTORE SWAP2 PUSH1 0x20 ADD SWAP2 PUSH2 0x124 JUMP JUMPDEST DUP3 ADD SWAP2 SWAP1 PUSH1 0x0 MSTORE PUSH1 0x20 PUSH1 0x0 KECCAK256 SWAP1 JUMPDEST DUP2 SLOAD DUP2 MSTORE SWAP1 PUSH1 0x1 ADD SWAP1 PUSH1 0x20 ADD DUP1 DUP4 GT PUSH2 0x107 JUMPI DUP3 SWAP1 SUB PUSH1 0x1F AND DUP3 ADD SWAP2 JUMPDEST POP POP POP POP POP DUP2 JUMP JUMPDEST PUSH1 0x1 SLOAD DUP2 JUMP JUMPDEST PUSH1 0x2 PUSH1 0x40 MLOAD PUSH1 0x20 ADD PUSH2 0x144 SWAP2 SWAP1 PUSH2 0x53A JUMP JUMPDEST PUSH1 0x40 MLOAD PUSH1 0x20 DUP2 DUP4 SUB SUB DUP2 MSTORE SWAP1 PUSH1 0x40 MSTORE DUP1 MLOAD SWAP1 PUSH1 0x20 ADD KECCAK256 DUP2 PUSH1 0x40 MLOAD PUSH1 0x20 ADD PUSH2 0x16B SWAP2 SWAP1 PUSH2 0x582 JUMP JUMPDEST PUSH1 0x40 MLOAD PUSH1 0x20 DUP2 DUP4 SUB SUB DUP2 MSTORE SWAP1 PUSH1 0x40 MSTORE DUP1 MLOAD SWAP1 PUSH1 0x20 ADD KECCAK256 SUB PUSH2 0x18B JUMPI PUSH1 0x0 DUP1 REVERT JUMPDEST DUP1 PUSH1 0x2 SWAP1 DUP2 PUSH2 0x19A SWAP2 SWAP1 PUSH2 0x730 JUMP JUMPDEST POP PUSH1 0x1 PUSH1 0x0 DUP2 SLOAD DUP1 SWAP3 SWAP2 SWAP1 PUSH2 0x1AE SWAP1 PUSH2 0x831 JUMP JUMPDEST SWAP2 SWAP1 POP SSTORE POP POP JUMP JUMPDEST PUSH1 0x0 DUP2 MLOAD SWAP1 POP SWAP2 SWAP1 POP JUMP JUMPDEST PUSH1 0x0 DUP3 DUP3 MSTORE PUSH1 0x20 DUP3 ADD SWAP1 POP SWAP3 SWAP2 POP POP JUMP JUMPDEST PUSH1 0x0 JUMPDEST DUP4 DUP2 LT ISZERO PUSH2 0x1F0 JUMPI DUP1 DUP3 ADD MLOAD DUP2 DUP5 ADD MSTORE PUSH1 0x20 DUP2 ADD SWAP1 POP PUSH2 0x1D5 JUMP JUMPDEST DUP4 DUP2 GT ISZERO PUSH2 0x1FF JUMPI PUSH1 0x0 DUP5 DUP5 ADD MSTORE JUMPDEST POP POP POP POP JUMP JUMPDEST PUSH1 0x0 PUSH1 0x1F NOT PUSH1 0x1F DUP4 ADD AND SWAP1 POP SWAP2 SWAP1 POP JUMP JUMPDEST PUSH1 0x0 PUSH2 0x221 DUP3 PUSH2 0x1B6 JUMP JUMPDEST PUSH2 0x22B DUP2 DUP6 PUSH2 0x1C1 JUMP JUMPDEST SWAP4 POP PUSH2 0x23B DUP2 DUP6 PUSH1 0x20 DUP7 ADD PUSH2 0x1D2 JUMP JUMPDEST PUSH2 0x244 DUP2 PUSH2 0x205 JUMP JUMPDEST DUP5 ADD SWAP2 POP POP SWAP3 SWAP2 POP POP JUMP JUMPDEST PUSH1 0x0 PUSH1 0x20 DUP3 ADD SWAP1 POP DUP2 DUP2 SUB PUSH1 0x0 DUP4 ADD MSTORE PUSH2 0x269 DUP2 DUP5 PUSH2 0x216 JUMP JUMPDEST SWAP1 POP SWAP3 SWAP2 POP POP JUMP JUMPDEST PUSH1 0x0 DUP2 SWAP1 POP SWAP2 SWAP1 POP JUMP JUMPDEST PUSH2 0x284 DUP2 PUSH2 0x271 JUMP JUMPDEST DUP3 MSTORE POP POP JUMP JUMPDEST PUSH1 0x0 PUSH1 0x20 DUP3 ADD SWAP1 POP PUSH2 0x29F PUSH1 0x0 DUP4 ADD DUP5 PUSH2 0x27B JUMP JUMPDEST SWAP3 SWAP2 POP POP JUMP JUMPDEST PUSH1 0x0 PUSH1 0x40 MLOAD SWAP1 POP SWAP1 JUMP JUMPDEST PUSH1 0x0 DUP1 REVERT JUMPDEST PUSH1 0x0 DUP1 REVERT JUMPDEST PUSH1 0x0 DUP1 REVERT JUMPDEST PUSH1 0x0 DUP1 REVERT JUMPDEST PUSH32 0x4E487B7100000000000000000000000000000000000000000000000000000000 PUSH1 0x0 MSTORE PUSH1 0x41 PUSH1 0x4 MSTORE PUSH1 0x24 PUSH1 0x0 REVERT JUMPDEST PUSH2 0x2FB DUP3 PUSH2 0x205 JUMP JUMPDEST DUP2 ADD DUP2 DUP2 LT PUSH8 0xFFFFFFFFFFFFFFFF DUP3 GT OR ISZERO PUSH2 0x31A JUMPI PUSH2 0x319 PUSH2 0x2C3 JUMP JUMPDEST JUMPDEST DUP1 PUSH1 0x40 MSTORE POP POP POP JUMP JUMPDEST PUSH1 0x0 PUSH2 0x32D PUSH2 0x2A5 JUMP JUMPDEST SWAP1 POP PUSH2 0x339 DUP3 DUP3 PUSH2 0x2F2 JUMP JUMPDEST SWAP2 SWAP1 POP JUMP JUMPDEST PUSH1 0x0 PUSH8 0xFFFFFFFFFFFFFFFF DUP3 GT ISZERO PUSH2 0x359 JUMPI PUSH2 0x358 PUSH2 0x2C3 JUMP JUMPDEST JUMPDEST PUSH2 0x362 DUP3 PUSH2 0x205 JUMP JUMPDEST SWAP1 POP PUSH1 0x20 DUP2 ADD SWAP1 POP SWAP2 SWAP1 POP JUMP JUMPDEST DUP3 DUP2 DUP4 CALLDATACOPY PUSH1 0x0 DUP4 DUP4 ADD MSTORE POP POP POP JUMP JUMPDEST PUSH1 0x0 PUSH2 0x391 PUSH2 0x38C DUP5 PUSH2 0x33E JUMP JUMPDEST PUSH2 0x323 JUMP JUMPDEST SWAP1 POP DUP3 DUP2 MSTORE PUSH1 0x20 DUP2 ADD DUP5 DUP5 DUP5 ADD GT ISZERO PUSH2 0x3AD JUMPI PUSH2 0x3AC PUSH2 0x2BE JUMP JUMPDEST JUMPDEST PUSH2 0x3B8 DUP5 DUP3 DUP6 PUSH2 0x36F JUMP JUMPDEST POP SWAP4 SWAP3 POP POP POP JUMP JUMPDEST PUSH1 0x0 DUP3 PUSH1 0x1F DUP4 ADD SLT PUSH2 0x3D5 JUMPI PUSH2 0x3D4 PUSH2 0x2B9 JUMP JUMPDEST JUMPDEST DUP2 CALLDATALOAD PUSH2 0x3E5 DUP5 DUP3 PUSH1 0x20 DUP7 ADD PUSH2 0x37E JUMP JUMPDEST SWAP2 POP POP SWAP3 SWAP2 POP POP JUMP JUMPDEST PUSH1 0x0 PUSH1 0x20 DUP3 DUP5 SUB SLT ISZERO PUSH2 0x404 JUMPI PUSH2 0x403 PUSH2 0x2AF JUMP JUMPDEST JUMPDEST PUSH1 0x0 DUP3 ADD CALLDATALOAD PUSH8 0xFFFFFFFFFFFFFFFF DUP2 GT ISZERO PUSH2 0x422 JUMPI PUSH2 0x421 PUSH2 0x2B4 JUMP JUMPDEST JUMPDEST PUSH2 0x42E DUP5 DUP3 DUP6 ADD PUSH2 0x3C0 JUMP JUMPDEST SWAP2 POP POP SWAP3 SWAP2 POP POP JUMP JUMPDEST PUSH32 0x4E487B7100000000000000000000000000000000000000000000000000000000 PUSH1 0x0 MSTORE PUSH1 0x22 PUSH1 0x4 MSTORE PUSH1 0x24 PUSH1 0x0 REVERT JUMPDEST PUSH1 0x0 PUSH1 0x2 DUP3 DIV SWAP1 POP PUSH1 0x1 DUP3 AND DUP1 PUSH2 0x47E JUMPI PUSH1 0x7F DUP3 AND SWAP2 POP JUMPDEST PUSH1 0x20 DUP3 LT DUP2 SUB PUSH2 0x491 JUMPI PUSH2 0x490 PUSH2 0x437 JUMP JUMPDEST JUMPDEST POP SWAP2 SWAP1 POP JUMP JUMPDEST PUSH1 0x0 DUP2 SWAP1 POP SWAP3 SWAP2 POP POP JUMP JUMPDEST PUSH1 0x0 DUP2 SWAP1 POP DUP2 PUSH1 0x0 MSTORE PUSH1 0x20 PUSH1 0x0 KECCAK256 SWAP1 POP SWAP2 SWAP1 POP JUMP JUMPDEST PUSH1 0x0 DUP2 SLOAD PUSH2 0x4C4 DUP2 PUSH2 0x466 JUMP JUMPDEST PUSH2 0x4CE DUP2 DUP7 PUSH2 0x497 JUMP JUMPDEST SWAP5 POP PUSH1 0x1 DUP3 AND PUSH1 0x0 DUP2 EQ PUSH2 0x4E9 JUMPI PUSH1 0x1 DUP2 EQ PUSH2 0x4FE JUMPI PUSH2 0x531 JUMP JUMPDEST PUSH1 0xFF NOT DUP4 AND DUP7 MSTORE DUP2 ISZERO ISZERO DUP3 MUL DUP7 ADD SWAP4 POP PUSH2 0x531 JUMP JUMPDEST PUSH2 0x507 DUP6 PUSH2 0x4A2 JUMP JUMPDEST PUSH1 0x0 JUMPDEST DUP4 DUP2 LT ISZERO PUSH2 0x529 JUMPI DUP2 SLOAD DUP2 DUP10 ADD MSTORE PUSH1 0x1 DUP3 ADD SWAP2 POP PUSH1 0x20 DUP2 ADD SWAP1 POP PUSH2 0x50A JUMP JUMPDEST DUP4 DUP9 ADD SWAP6 POP POP POP JUMPDEST POP POP POP SWAP3 SWAP2 POP POP JUMP JUMPDEST PUSH1 0x0 PUSH2 0x546 DUP3 DUP5 PUSH2 0x4B7 JUMP JUMPDEST SWAP2 POP DUP2 SWAP1 POP SWAP3 SWAP2 POP POP JUMP JUMPDEST PUSH1 0x0 PUSH2 0x55C DUP3 PUSH2 0x1B6 JUMP JUMPDEST PUSH2 0x566 DUP2 DUP6 PUSH2 0x497 JUMP JUMPDEST SWAP4 POP PUSH2 0x576 DUP2 DUP6 PUSH1 0x20 DUP7 ADD PUSH2 0x1D2 JUMP JUMPDEST DUP1 DUP5 ADD SWAP2 POP POP SWAP3 SWAP2 POP POP JUMP JUMPDEST PUSH1 0x0 PUSH2 0x58E DUP3 DUP5 PUSH2 0x551 JUMP JUMPDEST SWAP2 POP DUP2 SWAP1 POP SWAP3 SWAP2 POP POP JUMP JUMPDEST PUSH1 0x0 PUSH1 0x20 PUSH1 0x1F DUP4 ADD DIV SWAP1 POP SWAP2 SWAP1 POP JUMP JUMPDEST PUSH1 0x0 DUP3 DUP3 SHL SWAP1 POP SWAP3 SWAP2 POP POP JUMP JUMPDEST PUSH1 0x0 PUSH1 0x8 DUP4 MUL PUSH2 0x5E6 PUSH32 0xFFFFFFFFFFFFFFFFFFFFFFFFFFFFFFFFFFFFFFFFFFFFFFFFFFFFFFFFFFFFFFFF DUP3 PUSH2 0x5A9 JUMP JUMPDEST PUSH2 0x5F0 DUP7 DUP4 PUSH2 0x5A9 JUMP JUMPDEST SWAP6 POP DUP1 NOT DUP5 AND SWAP4 POP DUP1 DUP7 AND DUP5 OR SWAP3 POP POP POP SWAP4 SWAP3 POP POP POP JUMP JUMPDEST PUSH1 0x0 DUP2 SWAP1 POP SWAP2 SWAP1 POP JUMP JUMPDEST PUSH1 0x0 PUSH2 0x62D PUSH2 0x628 PUSH2 0x623 DUP5 PUSH2 0x271 JUMP JUMPDEST PUSH2 0x608 JUMP JUMPDEST PUSH2 0x271 JUMP JUMPDEST SWAP1 POP SWAP2 SWAP1 POP JUMP JUMPDEST PUSH1 0x0 DUP2 SWAP1 POP SWAP2 SWAP1 POP JUMP JUMPDEST PUSH2 0x647 DUP4 PUSH2 0x612 JUMP JUMPDEST PUSH2 0x65B PUSH2 0x653 DUP3 PUSH2 0x634 JUMP JUMPDEST DUP5 DUP5 SLOAD PUSH2 0x5B6 JUMP JUMPDEST DUP3 SSTORE POP POP POP POP JUMP JUMPDEST PUSH1 0x0 SWAP1 JUMP JUMPDEST PUSH2 0x670 PUSH2 0x663 JUMP JUMPDEST PUSH2 0x67B DUP2 DUP5 DUP5 PUSH2 0x63E JUMP JUMPDEST POP POP POP JUMP JUMPDEST JUMPDEST DUP2 DUP2 LT ISZERO PUSH2 0x69F JUMPI PUSH2 0x694 PUSH1 0x0 DUP3 PUSH2 0x668 JUMP JUMPDEST PUSH1 0x1 DUP2 ADD SWAP1 POP PUSH2 0x681 JUMP JUMPDEST POP POP JUMP JUMPDEST PUSH1 0x1F DUP3 GT ISZERO PUSH2 0x6E4 JUMPI PUSH2 0x6B5 DUP2 PUSH2 0x4A2 JUMP JUMPDEST PUSH2 0x6BE DUP5 PUSH2 0x599 JUMP JUMPDEST DUP2 ADD PUSH1 0x20 DUP6 LT ISZERO PUSH2 0x6CD JUMPI DUP2 SWAP1 POP JUMPDEST PUSH2 0x6E1 PUSH2 0x6D9 DUP6 PUSH2 0x599 JUMP JUMPDEST DUP4 ADD DUP3 PUSH2 0x680 JUMP JUMPDEST POP POP JUMPDEST POP POP POP JUMP JUMPDEST PUSH1 0x0 DUP3 DUP3 SHR SWAP1 POP SWAP3 SWAP2 POP POP JUMP JUMPDEST PUSH1 0x0 PUSH2 0x707 PUSH1 0x0 NOT DUP5 PUSH1 0x8 MUL PUSH2 0x6E9 JUMP JUMPDEST NOT DUP1 DUP4 AND SWAP2 POP POP SWAP3 SWAP2 POP POP JUMP JUMPDEST PUSH1 0x0 PUSH2 0x720 DUP4 DUP4 PUSH2 0x6F6 JUMP JUMPDEST SWAP2 POP DUP3 PUSH1 0x2 MUL DUP3 OR SWAP1 POP SWAP3 SWAP2 POP POP JUMP JUMPDEST PUSH2 0x739 DUP3 PUSH2 0x1B6 JUMP JUMPDEST PUSH8 0xFFFFFFFFFFFFFFFF DUP2 GT ISZERO PUSH2 0x752 JUMPI PUSH2 0x751 PUSH2 0x2C3 JUMP JUMPDEST JUMPDEST PUSH2 0x75C DUP3 SLOAD PUSH2 0x466 JUMP JUMPDEST PUSH2 0x767 DUP3 DUP3 DUP6 PUSH2 0x6A3 JUMP JUMPDEST PUSH1 0x0 PUSH1 0x20 SWAP1 POP PUSH1 0x1F DUP4 GT PUSH1 0x1 DUP2 EQ PUSH2 0x79A JUMPI PUSH1 0x0 DUP5 ISZERO PUSH2 0x788 JUMPI DUP3 DUP8 ADD MLOAD SWAP1 POP JUMPDEST PUSH2 0x792 DUP6 DUP3 PUSH2 0x714 JUMP JUMPDEST DUP7 SSTORE POP PUSH2 0x7FA JUMP JUMPDEST PUSH1 0x1F NOT DUP5 AND PUSH2 0x7A8 DUP7 PUSH2 0x4A2 JUMP JUMPDEST PUSH1 0x0 JUMPDEST DUP3 DUP2 LT ISZERO PUSH2 0x7D0 JUMPI DUP5 DUP10 ADD MLOAD DUP3 SSTORE PUSH1 0x1 DUP3 ADD SWAP2 POP PUSH1 0x20 DUP6 ADD SWAP5 POP PUSH1 0x20 DUP2 ADD SWAP1 POP PUSH2 0x7AB JUMP JUMPDEST DUP7 DUP4 LT ISZERO PUSH2 0x7ED JUMPI DUP5 DUP10 ADD MLOAD PUSH2 0x7E9 PUSH1 0x1F DUP10 AND DUP3 PUSH2 0x6F6 JUMP JUMPDEST DUP4 SSTORE POP JUMPDEST PUSH1 0x1 PUSH1 0x2 DUP9 MUL ADD DUP9 SSTORE POP POP POP JUMPDEST POP POP POP POP POP POP JUMP JUMPDEST PUSH32 0x4E487B7100000000000000000000000000000000000000000000000000000000 PUSH1 0x0 MSTORE PUSH1 0x11 PUSH1 0x4 MSTORE PUSH1 0x24 PUSH1 0x0 REVERT JUMPDEST PUSH1 0x0 PUSH2 0x83C DUP3 PUSH2 0x271 JUMP JUMPDEST SWAP2 POP PUSH32 0xFFFFFFFFFFFFFFFFFFFFFFFFFFFFFFFFFFFFFFFFFFFFFFFFFFFFFFFFFFFFFFFF DUP3 SUB PUSH2 0x86E JUMPI PUSH2 0x86D PUSH2 0x802 JUMP JUMPDEST JUMPDEST PUSH1 0x1 DUP3 ADD SWAP1 POP SWAP2 SWAP1 POP JUMP INVALID LOG2 PUSH5 0x6970667358 0x22 SLT KECCAK256 MLOAD OR RETURN CALLCODE 0xEC COINBASE 0xB9 0x4E EQ CALLVALUE PC 0xD3 0x2D 0xBC 0xDE LT CREATE DUP2 PUSH30 0xDAB4BA29F2C5DF16F8C440640B64736F6C634300080F0033000000000000 "
				},
				"gasEstimates": {
					"creation": {
						"codeDepositCost": "444600",
						"executionCost": "24746",
						"totalCost": "469346"
					},
					"external": {
						"counter()": "2429",
						"lastMessage()": "infinite",
						"updateLastMessage(string)": "infinite"
					}
				},
				"methodIdentifiers": {
					"counter()": "61bc221a",
					"lastMessage()": "32970710",
					"updateLastMessage(string)": "7886cc76"
				}
			},
			"storageLayout": {
				"storage": [
					{
						"astId": 3,
						"contract": "contracts/BlockchainMessanger.sol:BlockchainMessanger",
						"label": "owner",
						"offset": 0,
						"slot": "0",
						"type": "t_address"
					},
					{
						"astId": 5,
						"contract": "contracts/BlockchainMessanger.sol:BlockchainMessanger",
						"label": "counter",
						"offset": 0,
						"slot": "1",
						"type": "t_uint256"
					},
					{
						"astId": 7,
						"contract": "contracts/BlockchainMessanger.sol:BlockchainMessanger",
						"label": "lastMessage",
						"offset": 0,
						"slot": "2",
						"type": "t_string_storage"
					}
				],
				"types": {
					"t_address": {
						"encoding": "inplace",
						"label": "address",
						"numberOfBytes": "20"
					},
					"t_string_storage": {
						"encoding": "bytes",
						"label": "string",
						"numberOfBytes": "32"
					},
					"t_uint256": {
						"encoding": "inplace",
						"label": "uint256",
						"numberOfBytes": "32"
					}
				}
			},
			"userdoc": {
				"kind": "user",
				"methods": {},
				"version": 1
			}
		}
	}
}